{
  "contractName": "boletosNFTs",
  "abi": [
    {
      "inputs": [
        {
          "internalType": "address",
          "name": "_propietario",
          "type": "address"
        },
        {
          "internalType": "address",
          "name": "_contratoPadre",
          "type": "address"
        },
        {
          "internalType": "address",
          "name": "_contratoNFT",
          "type": "address"
        }
      ],
      "stateMutability": "nonpayable",
      "type": "constructor"
    },
    {
      "inputs": [],
      "name": "propietario",
      "outputs": [
        {
          "internalType": "address",
          "name": "direccionPropietario",
          "type": "address"
        },
        {
          "internalType": "address",
          "name": "contratoPadre",
          "type": "address"
        },
        {
          "internalType": "address",
          "name": "contratoNFT",
          "type": "address"
        },
        {
          "internalType": "address",
          "name": "contratoUsuario",
          "type": "address"
        }
      ],
      "stateMutability": "view",
      "type": "function"
    },
    {
      "inputs": [
        {
          "internalType": "address",
          "name": "_propietario",
          "type": "address"
        },
        {
          "internalType": "uint256",
          "name": "_boleto",
          "type": "uint256"
        }
      ],
      "name": "mintBoleto",
      "outputs": [],
      "stateMutability": "nonpayable",
      "type": "function"
    }
  ],
  "bytecode": "0x608060405234801561001057600080fd5b50604051610703380380610703833981810160405281019061003291906101e8565b60405180608001604052808473ffffffffffffffffffffffffffffffffffffffff1681526020018373ffffffffffffffffffffffffffffffffffffffff1681526020018273ffffffffffffffffffffffffffffffffffffffff1681526020013073ffffffffffffffffffffffffffffffffffffffff168152506000808201518160000160006101000a81548173ffffffffffffffffffffffffffffffffffffffff021916908373ffffffffffffffffffffffffffffffffffffffff16021790555060208201518160010160006101000a81548173ffffffffffffffffffffffffffffffffffffffff021916908373ffffffffffffffffffffffffffffffffffffffff16021790555060408201518160020160006101000a81548173ffffffffffffffffffffffffffffffffffffffff021916908373ffffffffffffffffffffffffffffffffffffffff16021790555060608201518160030160006101000a81548173ffffffffffffffffffffffffffffffffffffffff021916908373ffffffffffffffffffffffffffffffffffffffff160217905550905050505050610280565b6000815190506101e281610269565b92915050565b6000806000606084860312156101fd57600080fd5b600061020b868287016101d3565b935050602061021c868287016101d3565b925050604061022d868287016101d3565b9150509250925092565b600061024282610249565b9050919050565b600073ffffffffffffffffffffffffffffffffffffffff82169050919050565b61027281610237565b811461027d57600080fd5b50565b6104748061028f6000396000f3fe608060405234801561001057600080fd5b50600436106100365760003560e01c8063120e85231461003b5780633c4f81cd14610057575b600080fd5b61005560048036038101906100509190610269565b610078565b005b61005f6101a1565b60405161006f94939291906102e6565b60405180910390f35b600060010160009054906101000a900473ffffffffffffffffffffffffffffffffffffffff1673ffffffffffffffffffffffffffffffffffffffff163373ffffffffffffffffffffffffffffffffffffffff161461010b576040517f08c379a000000000000000000000000000000000000000000000000000000000815260040161010290610354565b60405180910390fd5b600060020160009054906101000a900473ffffffffffffffffffffffffffffffffffffffff1673ffffffffffffffffffffffffffffffffffffffff1663a144819483836040518363ffffffff1660e01b815260040161016b92919061032b565b600060405180830381600087803b15801561018557600080fd5b505af1158015610199573d6000803e3d6000fd5b505050505050565b60008060000160009054906101000a900473ffffffffffffffffffffffffffffffffffffffff16908060010160009054906101000a900473ffffffffffffffffffffffffffffffffffffffff16908060020160009054906101000a900473ffffffffffffffffffffffffffffffffffffffff16908060030160009054906101000a900473ffffffffffffffffffffffffffffffffffffffff16905084565b60008135905061024e81610410565b92915050565b60008135905061026381610427565b92915050565b6000806040838503121561027c57600080fd5b600061028a8582860161023f565b925050602061029b85828601610254565b9150509250929050565b6102ae81610385565b82525050565b60006102c1602d83610374565b91506102cc826103c1565b604082019050919050565b6102e0816103b7565b82525050565b60006080820190506102fb60008301876102a5565b61030860208301866102a5565b61031560408301856102a5565b61032260608301846102a5565b95945050505050565b600060408201905061034060008301856102a5565b61034d60208301846102d7565b9392505050565b6000602082019050818103600083015261036d816102b4565b9050919050565b600082825260208201905092915050565b600061039082610397565b9050919050565b600073ffffffffffffffffffffffffffffffffffffffff82169050919050565b6000819050919050565b7f4e6f207469656e6573207065726d69736f73207061726120656a65637574617260008201527f20657374612066756e63696f6e00000000000000000000000000000000000000602082015250565b61041981610385565b811461042457600080fd5b50565b610430816103b7565b811461043b57600080fd5b5056fea264697066735822122070e26285e30289dea5ba7fe918a8a4d1c9b5c2850d30da7d823cea537f84654864736f6c63430008040033",
  "immutableReferences": {},
  "source": "// SPDX-License-Identifier: MIT\r\npragma solidity ^0.8.4;\r\n\r\nimport \"@openzeppelin/contracts/token/ERC20/ERC20.sol\";\r\nimport \"@openzeppelin/contracts/token/ERC721/ERC721.sol\";\r\nimport \"@openzeppelin/contracts/access/Ownable.sol\";\r\n\r\n\r\ncontract loteria is ERC20, Ownable {\r\n\r\n    // ============================================\r\n    // Gestion de los tokens\r\n    // ============================================\r\n\r\n    // Direccion del contrato NFT del proyecto\r\n    address public nft;\r\n\r\n    // Constructor \r\n    constructor() ERC20(\"Loteria\", \"JA\"){\r\n        _mint(address(this), 1000);\r\n        nft = address(new mainERC721());\r\n    }\r\n\r\n    // Ganador del premio de la loteria\r\n    address public ganador;\r\n\r\n    // Registro del usuario\r\n    mapping(address => address) public usuario_contract;\r\n\r\n    // Precio de los tokens ERC-20\r\n    function precioTokens(uint256 _numTokens) internal pure returns (uint256){\r\n        return _numTokens * (1 ether);\r\n    }\r\n\r\n    // Agrega esta funcin en tu contrato \"loteria\"\r\n    function obtenerPrecioTokens(uint256 _numTokens) public pure returns (uint256) {\r\n        return precioTokens(_numTokens);\r\n    }\r\n\r\n\r\n    // Visualizacion del balance de tokens ERC-20 de un usuario\r\n    function balanceTokens(address _account) public view returns (uint256){\r\n        return balanceOf(_account);\r\n    }\r\n\r\n    // Visualizacion del balance de tokens ERC-20 del Smart Contract\r\n    function balanceTokensSC() public view returns (uint256){\r\n        return balanceOf(address(this));\r\n    }\r\n\r\n    // Visualizacion del balance de ethers del Smart Contract\r\n    function balanceEthersSC() public view returns (uint256){\r\n        return address(this).balance / 10**18;\r\n    }\r\n\r\n    // Generacion de nuevos Tokens ERC-20\r\n    function mint(uint256 _cantidad) public onlyOwner {\r\n        _mint(address(this), _cantidad);\r\n    }\r\n\r\n    // Registro de usuarios\r\n    function registrar() internal {\r\n        address addr_personal_contract = address(new boletosNFTs(msg.sender, address(this), nft));\r\n        usuario_contract[msg.sender] = addr_personal_contract; \r\n    }\r\n\r\n    // Informacion de un usuario\r\n    function usersInfo(address _account) public view returns (address){\r\n        return usuario_contract[_account];\r\n    }\r\n\r\n    function transferEther(address payable _to) public payable {\r\n        require(_to != address(0), \"La direccion de destino no puede ser la direccion cero.\");\r\n        require(msg.value > 0, \"Debes enviar una cantidad de Ether mayor a cero.\");\r\n\r\n        // Transferir Ether\r\n        _to.transfer(msg.value);\r\n    }\r\n\r\n\r\n    // Compra de tokens ERC-20\r\n    function compraTokens(uint256 _numTokens) public payable {\r\n        // Registro del ususario\r\n        if(usuario_contract[msg.sender] == address(0)){\r\n            registrar();\r\n        }\r\n        // Establecimiento del coste de los tokens a comprar\r\n        uint256 coste = precioTokens(_numTokens);\r\n        // Evaluacion del dinero que el cliente paga por los tokens\r\n        require(msg.value >= coste, \"Compra menos tokens o paga con mas ethers\");\r\n        // Obtencion del numero de tokens ERC-20 disponibles\r\n        uint256 balance = balanceTokensSC();\r\n        require(_numTokens <= balance, \"Compra un numero menor de tokens\");\r\n        // Devolucion del dinero sobrante\r\n        uint256 returnValue = msg.value - coste;\r\n        // El Smart Contract devuelve la cantidad restante\r\n        payable(msg.sender).transfer(returnValue);\r\n        // Envio de los tokens al cliente/usuario\r\n        _transfer(address(this), msg.sender, _numTokens);\r\n    }\r\n\r\n    // Devolucion de tokens al Smart Contract\r\n    function devolverTokens(uint _numTokens) public payable {\r\n        // El numero de tokens debe ser mayor a 0\r\n        require(_numTokens > 0, \"Necesitas devolver un numero de tokens mayor a 0\");\r\n        // El usuario debe acreditar tener los tokens que quiere devolver\r\n        require(_numTokens <= balanceTokens(msg.sender), \"No tienes los tokens que deseas devolver\");\r\n        // El usuario transfiere los tokens al Smart Contract\r\n        _transfer(msg.sender, address(this), _numTokens);\r\n        // El Smart Contract envia los ethers al usuario\r\n        payable(msg.sender).transfer(precioTokens(_numTokens));\r\n    }\r\n\r\n    // ============================================\r\n    // Gestion de la loteria\r\n    // ============================================\r\n\r\n    // Precio del boleto de loteria (en tokens ERC-20)\r\n    uint public precioBoleto = 5;\r\n    // Relacion: persona que compra los boletos -> el numero de los boletos\r\n    mapping(address => uint []) idPersona_boletos;\r\n    // Relacion: boleto -> ganador\r\n    mapping(uint => address) ADNBoleto;\r\n    // Numero aleatorio\r\n    uint randNonce = 0;\r\n    // Boletos de la loteria generadors\r\n    uint [] boletosComprados;\r\n\r\n    // Compra de boletos de loteria\r\n    function compraBoleto(uint _numBoletos) public {\r\n        // Precio total de los boletos a comprar\r\n        uint precioTotal = _numBoletos*precioBoleto;\r\n        // Verificacion de los tokens del usuario\r\n        require(precioTotal <= balanceTokens(msg.sender), \r\n                \"No tienes tokens suficientes\");\r\n        // Transferencia de tokens del usuario al Smart Contract\r\n        _transfer(msg.sender, address(this), precioTotal);\r\n        /* Recoge la marca de tiempo (block.timestamp), msg.sender y un Nonce\r\n        (un numero que solo se utiliza una vez, para que no ejecutemos dos veces la misma \r\n        funcion de hash con los mismos parametros de entrada) en incremento.\r\n        Se utiliza 'keccak256 'para convertir estas entradas a un hash aleatorio, \r\n        convertir ese hash a un uint y luego utilizamos % 10000 para tomar los ultimos 4 digitos,\r\n        dando un valor aleatorio entre 0 - 9999. */\r\n        for (uint i = 0; i < _numBoletos; i++){\r\n            uint random = uint(keccak256(abi.encodePacked(block.timestamp, msg.sender, randNonce))) % 10000;\r\n            randNonce++;\r\n            // Almacenamiento de los datos del boletos enlazados al usuario\r\n            idPersona_boletos[msg.sender].push(random);\r\n            // Almacenamiento de los datos de los boletos\r\n            boletosComprados.push(random);\r\n            // Asignacion del ADN del boleto para la generacion de un ganador\r\n            ADNBoleto[random] = msg.sender;\r\n            // Creacion de un nuevo NFT para el numero de boleto\r\n            boletosNFTs(usuario_contract[msg.sender]).mintBoleto(msg.sender, random);\r\n        }\r\n    }\r\n\r\n    // Visualizacion de los boletos del usuario\r\n    function tusBoletos(address _propietario) public view returns(uint [] memory){\r\n        return idPersona_boletos[_propietario];\r\n    }\r\n\r\n    // Generacion del ganador de la loteria\r\n    function generarGanador() public onlyOwner {\r\n        // Declaracion de la longitud del array\r\n        uint longitud = boletosComprados.length;\r\n        // Verificacion de la compra de al menos de 1 boleto\r\n        require(longitud > 0, \"No hay boletos comprados\");\r\n        // Eleccion aleatoria de un numero entre: [0-Longitud]\r\n        uint random = uint(uint(keccak256(abi.encodePacked(block.timestamp))) % longitud);\r\n        // Seleccion del numero aleatorio\r\n        uint eleccion = boletosComprados[random];\r\n        // Direccion del ganador de la loteria\r\n        ganador = ADNBoleto[eleccion];\r\n        // Envio del 95% del premio de loteria al ganador\r\n        payable(ganador).transfer(address(this).balance * 95 / 100);\r\n        // Envio del 5% del premio de loteria al owner\r\n        payable(owner()).transfer(address(this).balance * 5 / 100);\r\n    }\r\n\r\n}\r\n\r\n// Smart Contract de NFTs\r\ncontract mainERC721 is ERC721 {\r\n\r\n    address public direccionLoteria;\r\n    constructor() ERC721(\"Loteria\", \"STE\"){\r\n        direccionLoteria = msg.sender;\r\n    }\r\n\r\n    // Creacion de NFTs\r\n    function safeMint(address _propietario, uint256 _boleto) public {\r\n        require(msg.sender == loteria(direccionLoteria).usersInfo(_propietario),\r\n                \"No tienes permisos para ejecutar esta funcion\");\r\n        _safeMint(_propietario, _boleto);\r\n    }\r\n\r\n}\r\n\r\ncontract boletosNFTs {\r\n\r\n    // Datos relevantes del propietario \r\n    struct Owner {\r\n        address direccionPropietario;\r\n        address contratoPadre;\r\n        address contratoNFT;\r\n        address contratoUsuario;\r\n    }\r\n    // Estructura de datos de tipo Owner\r\n    Owner public propietario;\r\n\r\n    // Constructor del Smart Contract (hijo)\r\n    constructor(address _propietario, address _contratoPadre, address _contratoNFT){\r\n        propietario = Owner(_propietario, \r\n                            _contratoPadre,\r\n                            _contratoNFT, \r\n                            address(this));\r\n    }\r\n\r\n    // Conversion de los numeros de los boletos de loteria\r\n    function mintBoleto(address _propietario, uint _boleto) public {\r\n        require(msg.sender == propietario.contratoPadre, \r\n                \"No tienes permisos para ejecutar esta funcion\");\r\n        mainERC721(propietario.contratoNFT).safeMint(_propietario, _boleto);\r\n    }\r\n\r\n}",
  "sourcePath": "C:\\Users\\Remoto\\Documents\\Melvin\\Mis cosas\\Loteria\\src\\contracts\\loteria.sol",
  "compiler": {
    "name": "solc",
    "version": "0.8.4+commit.c7e474f2.Emscripten.clang"
  },
  "schemaVersion": "3.4.16",
  "updatedAt": "2024-11-14T13:27:27.944Z",
  "devdoc": {
    "kind": "dev",
    "methods": {},
    "version": 1
  },
  "userdoc": {
    "kind": "user",
    "methods": {},
    "version": 1
  }
}