{
  "contractName": "loteria",
  "abi": [
    {
      "inputs": [],
      "stateMutability": "nonpayable",
      "type": "constructor"
    },
    {
      "anonymous": false,
      "inputs": [
        {
          "indexed": true,
          "internalType": "address",
          "name": "owner",
          "type": "address"
        },
        {
          "indexed": true,
          "internalType": "address",
          "name": "spender",
          "type": "address"
        },
        {
          "indexed": false,
          "internalType": "uint256",
          "name": "value",
          "type": "uint256"
        }
      ],
      "name": "Approval",
      "type": "event"
    },
    {
      "anonymous": false,
      "inputs": [
        {
          "indexed": true,
          "internalType": "address",
          "name": "previousOwner",
          "type": "address"
        },
        {
          "indexed": true,
          "internalType": "address",
          "name": "newOwner",
          "type": "address"
        }
      ],
      "name": "OwnershipTransferred",
      "type": "event"
    },
    {
      "anonymous": false,
      "inputs": [
        {
          "indexed": true,
          "internalType": "address",
          "name": "from",
          "type": "address"
        },
        {
          "indexed": true,
          "internalType": "address",
          "name": "to",
          "type": "address"
        },
        {
          "indexed": false,
          "internalType": "uint256",
          "name": "value",
          "type": "uint256"
        }
      ],
      "name": "Transfer",
      "type": "event"
    },
    {
      "inputs": [
        {
          "internalType": "address",
          "name": "owner",
          "type": "address"
        },
        {
          "internalType": "address",
          "name": "spender",
          "type": "address"
        }
      ],
      "name": "allowance",
      "outputs": [
        {
          "internalType": "uint256",
          "name": "",
          "type": "uint256"
        }
      ],
      "stateMutability": "view",
      "type": "function",
      "constant": true
    },
    {
      "inputs": [
        {
          "internalType": "address",
          "name": "spender",
          "type": "address"
        },
        {
          "internalType": "uint256",
          "name": "amount",
          "type": "uint256"
        }
      ],
      "name": "approve",
      "outputs": [
        {
          "internalType": "bool",
          "name": "",
          "type": "bool"
        }
      ],
      "stateMutability": "nonpayable",
      "type": "function"
    },
    {
      "inputs": [
        {
          "internalType": "address",
          "name": "account",
          "type": "address"
        }
      ],
      "name": "balanceOf",
      "outputs": [
        {
          "internalType": "uint256",
          "name": "",
          "type": "uint256"
        }
      ],
      "stateMutability": "view",
      "type": "function",
      "constant": true
    },
    {
      "inputs": [],
      "name": "decimals",
      "outputs": [
        {
          "internalType": "uint8",
          "name": "",
          "type": "uint8"
        }
      ],
      "stateMutability": "view",
      "type": "function",
      "constant": true
    },
    {
      "inputs": [
        {
          "internalType": "address",
          "name": "spender",
          "type": "address"
        },
        {
          "internalType": "uint256",
          "name": "subtractedValue",
          "type": "uint256"
        }
      ],
      "name": "decreaseAllowance",
      "outputs": [
        {
          "internalType": "bool",
          "name": "",
          "type": "bool"
        }
      ],
      "stateMutability": "nonpayable",
      "type": "function"
    },
    {
      "inputs": [],
      "name": "ganador",
      "outputs": [
        {
          "internalType": "address",
          "name": "",
          "type": "address"
        }
      ],
      "stateMutability": "view",
      "type": "function",
      "constant": true
    },
    {
      "inputs": [
        {
          "internalType": "address",
          "name": "spender",
          "type": "address"
        },
        {
          "internalType": "uint256",
          "name": "addedValue",
          "type": "uint256"
        }
      ],
      "name": "increaseAllowance",
      "outputs": [
        {
          "internalType": "bool",
          "name": "",
          "type": "bool"
        }
      ],
      "stateMutability": "nonpayable",
      "type": "function"
    },
    {
      "inputs": [],
      "name": "name",
      "outputs": [
        {
          "internalType": "string",
          "name": "",
          "type": "string"
        }
      ],
      "stateMutability": "view",
      "type": "function",
      "constant": true
    },
    {
      "inputs": [],
      "name": "nft",
      "outputs": [
        {
          "internalType": "address",
          "name": "",
          "type": "address"
        }
      ],
      "stateMutability": "view",
      "type": "function",
      "constant": true
    },
    {
      "inputs": [],
      "name": "owner",
      "outputs": [
        {
          "internalType": "address",
          "name": "",
          "type": "address"
        }
      ],
      "stateMutability": "view",
      "type": "function",
      "constant": true
    },
    {
      "inputs": [],
      "name": "precioBoleto",
      "outputs": [
        {
          "internalType": "uint256",
          "name": "",
          "type": "uint256"
        }
      ],
      "stateMutability": "view",
      "type": "function",
      "constant": true
    },
    {
      "inputs": [],
      "name": "renounceOwnership",
      "outputs": [],
      "stateMutability": "nonpayable",
      "type": "function"
    },
    {
      "inputs": [],
      "name": "symbol",
      "outputs": [
        {
          "internalType": "string",
          "name": "",
          "type": "string"
        }
      ],
      "stateMutability": "view",
      "type": "function",
      "constant": true
    },
    {
      "inputs": [],
      "name": "totalSupply",
      "outputs": [
        {
          "internalType": "uint256",
          "name": "",
          "type": "uint256"
        }
      ],
      "stateMutability": "view",
      "type": "function",
      "constant": true
    },
    {
      "inputs": [
        {
          "internalType": "address",
          "name": "to",
          "type": "address"
        },
        {
          "internalType": "uint256",
          "name": "amount",
          "type": "uint256"
        }
      ],
      "name": "transfer",
      "outputs": [
        {
          "internalType": "bool",
          "name": "",
          "type": "bool"
        }
      ],
      "stateMutability": "nonpayable",
      "type": "function"
    },
    {
      "inputs": [
        {
          "internalType": "address",
          "name": "from",
          "type": "address"
        },
        {
          "internalType": "address",
          "name": "to",
          "type": "address"
        },
        {
          "internalType": "uint256",
          "name": "amount",
          "type": "uint256"
        }
      ],
      "name": "transferFrom",
      "outputs": [
        {
          "internalType": "bool",
          "name": "",
          "type": "bool"
        }
      ],
      "stateMutability": "nonpayable",
      "type": "function"
    },
    {
      "inputs": [
        {
          "internalType": "address",
          "name": "newOwner",
          "type": "address"
        }
      ],
      "name": "transferOwnership",
      "outputs": [],
      "stateMutability": "nonpayable",
      "type": "function"
    },
    {
      "inputs": [
        {
          "internalType": "address",
          "name": "",
          "type": "address"
        }
      ],
      "name": "usuario_contract",
      "outputs": [
        {
          "internalType": "address",
          "name": "",
          "type": "address"
        }
      ],
      "stateMutability": "view",
      "type": "function",
      "constant": true
    },
    {
      "inputs": [
        {
          "internalType": "uint256",
          "name": "_numTokens",
          "type": "uint256"
        }
      ],
      "name": "obtenerPrecioTokens",
      "outputs": [
        {
          "internalType": "uint256",
          "name": "",
          "type": "uint256"
        }
      ],
      "stateMutability": "pure",
      "type": "function",
      "constant": true
    },
    {
      "inputs": [
        {
          "internalType": "address",
          "name": "_account",
          "type": "address"
        }
      ],
      "name": "balanceTokens",
      "outputs": [
        {
          "internalType": "uint256",
          "name": "",
          "type": "uint256"
        }
      ],
      "stateMutability": "view",
      "type": "function",
      "constant": true
    },
    {
      "inputs": [
        {
          "internalType": "address",
          "name": "_account",
          "type": "address"
        }
      ],
      "name": "verBalance",
      "outputs": [
        {
          "internalType": "uint256",
          "name": "",
          "type": "uint256"
        }
      ],
      "stateMutability": "view",
      "type": "function",
      "constant": true
    },
    {
      "inputs": [],
      "name": "balanceTokensSC",
      "outputs": [
        {
          "internalType": "uint256",
          "name": "",
          "type": "uint256"
        }
      ],
      "stateMutability": "view",
      "type": "function",
      "constant": true
    },
    {
      "inputs": [],
      "name": "balanceEthersSC",
      "outputs": [
        {
          "internalType": "uint256",
          "name": "",
          "type": "uint256"
        }
      ],
      "stateMutability": "view",
      "type": "function",
      "constant": true
    },
    {
      "inputs": [
        {
          "internalType": "uint256",
          "name": "_cantidad",
          "type": "uint256"
        }
      ],
      "name": "mint",
      "outputs": [],
      "stateMutability": "nonpayable",
      "type": "function"
    },
    {
      "inputs": [
        {
          "internalType": "address",
          "name": "_account",
          "type": "address"
        }
      ],
      "name": "usersInfo",
      "outputs": [
        {
          "internalType": "address",
          "name": "",
          "type": "address"
        }
      ],
      "stateMutability": "view",
      "type": "function",
      "constant": true
    },
    {
      "inputs": [
        {
          "internalType": "address payable",
          "name": "_to",
          "type": "address"
        }
      ],
      "name": "transferEther",
      "outputs": [],
      "stateMutability": "payable",
      "type": "function",
      "payable": true
    },
    {
      "inputs": [
        {
          "internalType": "uint256",
          "name": "_numTokens",
          "type": "uint256"
        }
      ],
      "name": "compraTokens",
      "outputs": [],
      "stateMutability": "payable",
      "type": "function",
      "payable": true
    },
    {
      "inputs": [
        {
          "internalType": "uint256",
          "name": "_numTokens",
          "type": "uint256"
        }
      ],
      "name": "devolverTokens",
      "outputs": [],
      "stateMutability": "payable",
      "type": "function",
      "payable": true
    },
    {
      "inputs": [
        {
          "internalType": "uint256",
          "name": "_numBoletos",
          "type": "uint256"
        }
      ],
      "name": "compraBoleto",
      "outputs": [],
      "stateMutability": "nonpayable",
      "type": "function"
    },
    {
      "inputs": [
        {
          "internalType": "address",
          "name": "_propietario",
          "type": "address"
        }
      ],
      "name": "tusBoletos",
      "outputs": [
        {
          "internalType": "uint256[]",
          "name": "",
          "type": "uint256[]"
        }
      ],
      "stateMutability": "view",
      "type": "function",
      "constant": true
    },
    {
      "inputs": [],
      "name": "generarGanador",
      "outputs": [],
      "stateMutability": "nonpayable",
      "type": "function"
    }
  ],
  "bytecode": "0x608060405260056009556000600c553480156200001b57600080fd5b506040518060400160405280600781526020017f4c6f7465726961000000000000000000000000000000000000000000000000008152506040518060400160405280600281526020017f4a410000000000000000000000000000000000000000000000000000000000008152508160039080519060200190620000a0929190620003a8565b508060049080519060200190620000b9929190620003a8565b505050620000dc620000d06200016260201b60201c565b6200016a60201b60201c565b620000f0306103e86200023060201b60201c565b604051620000fe9062000439565b604051809103906000f0801580156200011b573d6000803e3d6000fd5b50600660006101000a81548173ffffffffffffffffffffffffffffffffffffffff021916908373ffffffffffffffffffffffffffffffffffffffff16021790555062000612565b600033905090565b6000600560009054906101000a900473ffffffffffffffffffffffffffffffffffffffff16905081600560006101000a81548173ffffffffffffffffffffffffffffffffffffffff021916908373ffffffffffffffffffffffffffffffffffffffff1602179055508173ffffffffffffffffffffffffffffffffffffffff168173ffffffffffffffffffffffffffffffffffffffff167f8be0079c531659141344cd1fd0a4f28419497f9722a3daafe3b4186f6b6457e060405160405180910390a35050565b600073ffffffffffffffffffffffffffffffffffffffff168273ffffffffffffffffffffffffffffffffffffffff161415620002a3576040517f08c379a00000000000000000000000000000000000000000000000000000000081526004016200029a906200049e565b60405180910390fd5b620002b7600083836200039e60201b60201c565b8060026000828254620002cb9190620004ee565b92505081905550806000808473ffffffffffffffffffffffffffffffffffffffff1673ffffffffffffffffffffffffffffffffffffffff168152602001908152602001600020600082825401925050819055508173ffffffffffffffffffffffffffffffffffffffff16600073ffffffffffffffffffffffffffffffffffffffff167fddf252ad1be2c89b69c2b068fc378daa952ba7f163c4a11628f55a4df523b3ef836040516200037e9190620004c0565b60405180910390a36200039a60008383620003a360201b60201c565b5050565b505050565b505050565b828054620003b69062000555565b90600052602060002090601f016020900481019282620003da576000855562000426565b82601f10620003f557805160ff191683800117855562000426565b8280016001018555821562000426579182015b828111156200042557825182559160200191906001019062000408565b5b50905062000435919062000447565b5090565b612a0f8062003fcc83390190565b5b808211156200046257600081600090555060010162000448565b5090565b600062000475601f83620004dd565b91506200048282620005e9565b602082019050919050565b62000498816200054b565b82525050565b60006020820190508181036000830152620004b98162000466565b9050919050565b6000602082019050620004d760008301846200048d565b92915050565b600082825260208201905092915050565b6000620004fb826200054b565b915062000508836200054b565b9250827fffffffffffffffffffffffffffffffffffffffffffffffffffffffffffffffff0382111562000540576200053f6200058b565b5b828201905092915050565b6000819050919050565b600060028204905060018216806200056e57607f821691505b60208210811415620005855762000584620005ba565b5b50919050565b7f4e487b7100000000000000000000000000000000000000000000000000000000600052601160045260246000fd5b7f4e487b7100000000000000000000000000000000000000000000000000000000600052602260045260246000fd5b7f45524332303a206d696e7420746f20746865207a65726f206164647265737300600082015250565b6139aa80620006226000396000f3fe608060405260043610620002065760003560e01c80638da5cb5b116200011b578063b934c38411620000a3578063e51c9bdf116200006d578063e51c9bdf14620007ad578063ee5ade8314620007db578063f2fde38b146200080b578063f9b4527a14620008395762000206565b8063b934c38414620006d5578063c29dd7c91462000705578063dd62ed3e1462000725578063df63641414620007695762000206565b806395d89b4111620000e557806395d89b4114620005ef578063a0712d68146200061f578063a457c2d7146200064d578063a9059cbb14620006915762000206565b80638da5cb5b146200051b5780639114bde8146200054b578063912cf304146200057b57806392ef10d814620005bf5762000206565b806339509351116200019f5780636b55e99111620001695780636b55e991146200048357806370a0823114620004a3578063715018a614620004e757806389e25c2814620005015762000206565b80633950935114620003875780633c11fdab14620003cb57806347ccca02146200040f5780635d0eaaaf146200043f5762000206565b806323acfa8111620001e157806323acfa8114620002af57806323b872dd14620002f35780632e95161c1462000337578063313ce56714620003575762000206565b806306fdde03146200020b578063095ea7b3146200023b57806318160ddd146200027f575b600080fd5b3480156200021857600080fd5b50620002236200087d565b604051620002329190620026f7565b60405180910390f35b3480156200024857600080fd5b5062000267600480360381019062000261919062002154565b62000917565b604051620002769190620026da565b60405180910390f35b3480156200028c57600080fd5b50620002976200093e565b604051620002a691906200297f565b60405180910390f35b348015620002bc57600080fd5b50620002db6004803603810190620002d5919062002065565b62000948565b604051620002ea91906200262f565b60405180910390f35b3480156200030057600080fd5b506200031f6004803603810190620003199190620020fe565b6200097b565b6040516200032e9190620026da565b60405180910390f35b6200035560048036038101906200034f919062002195565b620009b0565b005b3480156200036457600080fd5b506200036f62000aa8565b6040516200037e91906200299c565b60405180910390f35b3480156200039457600080fd5b50620003b36004803603810190620003ad919062002154565b62000ab1565b604051620003c29190620026da565b60405180910390f35b348015620003d857600080fd5b50620003f76004803603810190620003f1919062002065565b62000af0565b6040516200040691906200297f565b60405180910390f35b3480156200041c57600080fd5b506200042762000b11565b6040516200043691906200262f565b60405180910390f35b3480156200044c57600080fd5b506200046b600480360381019062000465919062002065565b62000b37565b6040516200047a91906200262f565b60405180910390f35b620004a160048036038101906200049b919062002091565b62000ba0565b005b348015620004b057600080fd5b50620004cf6004803603810190620004c9919062002065565b62000ca4565b604051620004de91906200297f565b60405180910390f35b348015620004f457600080fd5b50620004ff62000cec565b005b3480156200050e57600080fd5b506200051962000d04565b005b3480156200052857600080fd5b506200053362000f51565b6040516200054291906200262f565b60405180910390f35b3480156200055857600080fd5b506200056362000f7b565b6040516200057291906200262f565b60405180910390f35b3480156200058857600080fd5b50620005a76004803603810190620005a1919062002065565b62000fa1565b604051620005b69190620026b6565b60405180910390f35b348015620005cc57600080fd5b50620005d76200103a565b604051620005e691906200297f565b60405180910390f35b348015620005fc57600080fd5b50620006076200104c565b604051620006169190620026f7565b60405180910390f35b3480156200062c57600080fd5b506200064b600480360381019062000645919062002195565b620010e6565b005b3480156200065a57600080fd5b5062000679600480360381019062000673919062002154565b620010ff565b604051620006889190620026da565b60405180910390f35b3480156200069e57600080fd5b50620006bd6004803603810190620006b7919062002154565b6200117f565b604051620006cc9190620026da565b60405180910390f35b348015620006e257600080fd5b50620006ed620011a6565b604051620006fc91906200297f565b60405180910390f35b6200072360048036038101906200071d919062002195565b620011c3565b005b3480156200073257600080fd5b506200075160048036038101906200074b9190620020bd565b62001379565b6040516200076091906200297f565b60405180910390f35b3480156200077657600080fd5b506200079560048036038101906200078f919062002195565b62001400565b604051620007a491906200297f565b60405180910390f35b348015620007ba57600080fd5b50620007d96004803603810190620007d3919062002195565b62001414565b005b348015620007e857600080fd5b50620007f3620016bd565b6040516200080291906200297f565b60405180910390f35b3480156200081857600080fd5b5062000837600480360381019062000831919062002065565b620016c3565b005b3480156200084657600080fd5b506200086560048036038101906200085f919062002065565b6200174e565b6040516200087491906200297f565b60405180910390f35b6060600380546200088e9062002be0565b80601f0160208091040260200160405190810160405280929190818152602001828054620008bc9062002be0565b80156200090d5780601f10620008e1576101008083540402835291602001916200090d565b820191906000526020600020905b815481529060010190602001808311620008ef57829003601f168201915b5050505050905090565b6000806200092462001762565b9050620009338185856200176a565b600191505092915050565b6000600254905090565b60086020528060005260406000206000915054906101000a900473ffffffffffffffffffffffffffffffffffffffff1681565b6000806200098862001762565b9050620009978582856200193d565b620009a4858585620019d1565b60019150509392505050565b60008111620009f6576040517f08c379a0000000000000000000000000000000000000000000000000000000008152600401620009ed9062002809565b60405180910390fd5b62000a01336200174e565b81111562000a46576040517f08c379a000000000000000000000000000000000000000000000000000000000815260040162000a3d9062002919565b60405180910390fd5b62000a53333083620019d1565b3373ffffffffffffffffffffffffffffffffffffffff166108fc62000a788362001c58565b9081150290604051600060405180830381858888f1935050505015801562000aa4573d6000803e3d6000fd5b5050565b60006012905090565b60008062000abe62001762565b905062000ae581858562000ad3858962001379565b62000adf919062002a0e565b6200176a565b600191505092915050565b60008173ffffffffffffffffffffffffffffffffffffffff16319050919050565b600660009054906101000a900473ffffffffffffffffffffffffffffffffffffffff1681565b6000600860008373ffffffffffffffffffffffffffffffffffffffff1673ffffffffffffffffffffffffffffffffffffffff16815260200190815260200160002060009054906101000a900473ffffffffffffffffffffffffffffffffffffffff169050919050565b600073ffffffffffffffffffffffffffffffffffffffff168173ffffffffffffffffffffffffffffffffffffffff16141562000c13576040517f08c379a000000000000000000000000000000000000000000000000000000000815260040162000c0a90620027a3565b60405180910390fd5b6000341162000c59576040517f08c379a000000000000000000000000000000000000000000000000000000000815260040162000c50906200273d565b60405180910390fd5b8073ffffffffffffffffffffffffffffffffffffffff166108fc349081150290604051600060405180830381858888f1935050505015801562000ca0573d6000803e3d6000fd5b5050565b60008060008373ffffffffffffffffffffffffffffffffffffffff1673ffffffffffffffffffffffffffffffffffffffff168152602001908152602001600020549050919050565b62000cf662001c77565b62000d02600062001cfc565b565b62000d0e62001c77565b6000600d8054905090506000811162000d5e576040517f08c379a000000000000000000000000000000000000000000000000000000000815260040162000d55906200284d565b60405180910390fd5b6000814260405160200162000d749190620025cf565b6040516020818303038152906040528051906020012060001c62000d99919062002c96565b90506000600d828154811062000dd8577f4e487b7100000000000000000000000000000000000000000000000000000000600052603260045260246000fd5b90600052602060002001549050600b600082815260200190815260200160002060009054906101000a900473ffffffffffffffffffffffffffffffffffffffff16600760006101000a81548173ffffffffffffffffffffffffffffffffffffffff021916908373ffffffffffffffffffffffffffffffffffffffff160217905550600760009054906101000a900473ffffffffffffffffffffffffffffffffffffffff1673ffffffffffffffffffffffffffffffffffffffff166108fc6064605f4762000ea6919062002aa3565b62000eb2919062002a6b565b9081150290604051600060405180830381858888f1935050505015801562000ede573d6000803e3d6000fd5b5062000ee962000f51565b73ffffffffffffffffffffffffffffffffffffffff166108fc606460054762000f13919062002aa3565b62000f1f919062002a6b565b9081150290604051600060405180830381858888f1935050505015801562000f4b573d6000803e3d6000fd5b50505050565b6000600560009054906101000a900473ffffffffffffffffffffffffffffffffffffffff16905090565b600760009054906101000a900473ffffffffffffffffffffffffffffffffffffffff1681565b6060600a60008373ffffffffffffffffffffffffffffffffffffffff1673ffffffffffffffffffffffffffffffffffffffff1681526020019081526020016000208054806020026020016040519081016040528092919081815260200182805480156200102e57602002820191906000526020600020905b81548152602001906001019080831162001019575b50505050509050919050565b6000620010473062000ca4565b905090565b6060600480546200105d9062002be0565b80601f01602080910402602001604051908101604052809291908181526020018280546200108b9062002be0565b8015620010dc5780601f10620010b057610100808354040283529160200191620010dc565b820191906000526020600020905b815481529060010190602001808311620010be57829003601f168201915b5050505050905090565b620010f062001c77565b620010fc308262001dc2565b50565b6000806200110c62001762565b905060006200111c828662001379565b90508381101562001164576040517f08c379a00000000000000000000000000000000000000000000000000000000081526004016200115b906200293b565b60405180910390fd5b6200117382868684036200176a565b60019250505092915050565b6000806200118c62001762565b90506200119b818585620019d1565b600191505092915050565b6000670de0b6b3a764000047620011be919062002a6b565b905090565b600073ffffffffffffffffffffffffffffffffffffffff16600860003373ffffffffffffffffffffffffffffffffffffffff1673ffffffffffffffffffffffffffffffffffffffff16815260200190815260200160002060009054906101000a900473ffffffffffffffffffffffffffffffffffffffff1673ffffffffffffffffffffffffffffffffffffffff16141562001263576200126262001f24565b5b6000620012708262001c58565b905080341015620012b8576040517f08c379a0000000000000000000000000000000000000000000000000000000008152600401620012af90620028f7565b60405180910390fd5b6000620012c46200103a565b9050808311156200130c576040517f08c379a000000000000000000000000000000000000000000000000000000000815260040162001303906200286f565b60405180910390fd5b600082346200131c919062002b04565b90503373ffffffffffffffffffffffffffffffffffffffff166108fc829081150290604051600060405180830381858888f1935050505015801562001365573d6000803e3d6000fd5b5062001373303386620019d1565b50505050565b6000600160008473ffffffffffffffffffffffffffffffffffffffff1673ffffffffffffffffffffffffffffffffffffffff16815260200190815260200160002060008373ffffffffffffffffffffffffffffffffffffffff1673ffffffffffffffffffffffffffffffffffffffff16815260200190815260200160002054905092915050565b60006200140d8262001c58565b9050919050565b60006009548262001426919062002aa3565b905062001433336200174e565b81111562001478576040517f08c379a00000000000000000000000000000000000000000000000000000000081526004016200146f90620027e7565b60405180910390fd5b62001485333083620019d1565b60005b82811015620016b85760006127104233600c54604051602001620014af93929190620025ec565b6040516020818303038152906040528051906020012060001c620014d4919062002c96565b9050600c6000815480929190620014eb9062002c16565b9190505550600a60003373ffffffffffffffffffffffffffffffffffffffff1673ffffffffffffffffffffffffffffffffffffffff168152602001908152602001600020819080600181540180825580915050600190039060005260206000200160009091909190915055600d81908060018154018082558091505060019003906000526020600020016000909190919091505533600b600083815260200190815260200160002060006101000a81548173ffffffffffffffffffffffffffffffffffffffff021916908373ffffffffffffffffffffffffffffffffffffffff160217905550600860003373ffffffffffffffffffffffffffffffffffffffff1673ffffffffffffffffffffffffffffffffffffffff16815260200190815260200160002060009054906101000a900473ffffffffffffffffffffffffffffffffffffffff1673ffffffffffffffffffffffffffffffffffffffff1663120e852333836040518363ffffffff1660e01b81526004016200166d92919062002689565b600060405180830381600087803b1580156200168857600080fd5b505af11580156200169d573d6000803e3d6000fd5b50505050508080620016af9062002c16565b91505062001488565b505050565b60095481565b620016cd62001c77565b600073ffffffffffffffffffffffffffffffffffffffff168173ffffffffffffffffffffffffffffffffffffffff16141562001740576040517f08c379a000000000000000000000000000000000000000000000000000000000815260040162001737906200275f565b60405180910390fd5b6200174b8162001cfc565b50565b60006200175b8262000ca4565b9050919050565b600033905090565b600073ffffffffffffffffffffffffffffffffffffffff168373ffffffffffffffffffffffffffffffffffffffff161415620017dd576040517f08c379a0000000000000000000000000000000000000000000000000000000008152600401620017d490620028d5565b60405180910390fd5b600073ffffffffffffffffffffffffffffffffffffffff168273ffffffffffffffffffffffffffffffffffffffff16141562001850576040517f08c379a0000000000000000000000000000000000000000000000000000000008152600401620018479062002781565b60405180910390fd5b80600160008573ffffffffffffffffffffffffffffffffffffffff1673ffffffffffffffffffffffffffffffffffffffff16815260200190815260200160002060008473ffffffffffffffffffffffffffffffffffffffff1673ffffffffffffffffffffffffffffffffffffffff168152602001908152602001600020819055508173ffffffffffffffffffffffffffffffffffffffff168373ffffffffffffffffffffffffffffffffffffffff167f8c5be1e5ebec7d5bd14f71427d1e84f3dd0314c0f7b2291e5b200ac8c7c3b925836040516200193091906200297f565b60405180910390a3505050565b60006200194b848462001379565b90507fffffffffffffffffffffffffffffffffffffffffffffffffffffffffffffffff8114620019cb5781811015620019bb576040517f08c379a0000000000000000000000000000000000000000000000000000000008152600401620019b290620027c5565b60405180910390fd5b620019ca84848484036200176a565b5b50505050565b600073ffffffffffffffffffffffffffffffffffffffff168373ffffffffffffffffffffffffffffffffffffffff16141562001a44576040517f08c379a000000000000000000000000000000000000000000000000000000000815260040162001a3b90620028b3565b60405180910390fd5b600073ffffffffffffffffffffffffffffffffffffffff168273ffffffffffffffffffffffffffffffffffffffff16141562001ab7576040517f08c379a000000000000000000000000000000000000000000000000000000000815260040162001aae906200271b565b60405180910390fd5b62001ac483838362002008565b60008060008573ffffffffffffffffffffffffffffffffffffffff1673ffffffffffffffffffffffffffffffffffffffff1681526020019081526020016000205490508181101562001b4d576040517f08c379a000000000000000000000000000000000000000000000000000000000815260040162001b44906200282b565b60405180910390fd5b8181036000808673ffffffffffffffffffffffffffffffffffffffff1673ffffffffffffffffffffffffffffffffffffffff16815260200190815260200160002081905550816000808573ffffffffffffffffffffffffffffffffffffffff1673ffffffffffffffffffffffffffffffffffffffff168152602001908152602001600020600082825401925050819055508273ffffffffffffffffffffffffffffffffffffffff168473ffffffffffffffffffffffffffffffffffffffff167fddf252ad1be2c89b69c2b068fc378daa952ba7f163c4a11628f55a4df523b3ef8460405162001c3d91906200297f565b60405180910390a362001c528484846200200d565b50505050565b6000670de0b6b3a76400008262001c70919062002aa3565b9050919050565b62001c8162001762565b73ffffffffffffffffffffffffffffffffffffffff1662001ca162000f51565b73ffffffffffffffffffffffffffffffffffffffff161462001cfa576040517f08c379a000000000000000000000000000000000000000000000000000000000815260040162001cf19062002891565b60405180910390fd5b565b6000600560009054906101000a900473ffffffffffffffffffffffffffffffffffffffff16905081600560006101000a81548173ffffffffffffffffffffffffffffffffffffffff021916908373ffffffffffffffffffffffffffffffffffffffff1602179055508173ffffffffffffffffffffffffffffffffffffffff168173ffffffffffffffffffffffffffffffffffffffff167f8be0079c531659141344cd1fd0a4f28419497f9722a3daafe3b4186f6b6457e060405160405180910390a35050565b600073ffffffffffffffffffffffffffffffffffffffff168273ffffffffffffffffffffffffffffffffffffffff16141562001e35576040517f08c379a000000000000000000000000000000000000000000000000000000000815260040162001e2c906200295d565b60405180910390fd5b62001e436000838362002008565b806002600082825462001e57919062002a0e565b92505081905550806000808473ffffffffffffffffffffffffffffffffffffffff1673ffffffffffffffffffffffffffffffffffffffff168152602001908152602001600020600082825401925050819055508173ffffffffffffffffffffffffffffffffffffffff16600073ffffffffffffffffffffffffffffffffffffffff167fddf252ad1be2c89b69c2b068fc378daa952ba7f163c4a11628f55a4df523b3ef8360405162001f0a91906200297f565b60405180910390a362001f20600083836200200d565b5050565b60003330600660009054906101000a900473ffffffffffffffffffffffffffffffffffffffff1660405162001f599062002012565b62001f67939291906200264c565b604051809103906000f08015801562001f84573d6000803e3d6000fd5b50905080600860003373ffffffffffffffffffffffffffffffffffffffff1673ffffffffffffffffffffffffffffffffffffffff16815260200190815260200160002060006101000a81548173ffffffffffffffffffffffffffffffffffffffff021916908373ffffffffffffffffffffffffffffffffffffffff16021790555050565b505050565b505050565b610703806200327283390190565b600081359050620020318162003223565b92915050565b60008135905062002048816200323d565b92915050565b6000813590506200205f8162003257565b92915050565b6000602082840312156200207857600080fd5b6000620020888482850162002020565b91505092915050565b600060208284031215620020a457600080fd5b6000620020b48482850162002037565b91505092915050565b60008060408385031215620020d157600080fd5b6000620020e18582860162002020565b9250506020620020f48582860162002020565b9150509250929050565b6000806000606084860312156200211457600080fd5b6000620021248682870162002020565b9350506020620021378682870162002020565b92505060406200214a868287016200204e565b9150509250925092565b600080604083850312156200216857600080fd5b6000620021788582860162002020565b92505060206200218b858286016200204e565b9150509250929050565b600060208284031215620021a857600080fd5b6000620021b8848285016200204e565b91505092915050565b6000620021cf838362002581565b60208301905092915050565b620021e68162002b3f565b82525050565b62002201620021fb8262002b3f565b62002c64565b82525050565b60006200221482620029c9565b620022208185620029ec565b93506200222d83620029b9565b8060005b8381101562002264578151620022488882620021c1565b97506200225583620029df565b92505060018101905062002231565b5085935050505092915050565b6200227c8162002b67565b82525050565b60006200228f82620029d4565b6200229b8185620029fd565b9350620022ad81856020860162002baa565b620022b88162002d5b565b840191505092915050565b6000620022d2602383620029fd565b9150620022df8262002d79565b604082019050919050565b6000620022f9603083620029fd565b9150620023068262002dc8565b604082019050919050565b600062002320602683620029fd565b91506200232d8262002e17565b604082019050919050565b600062002347602283620029fd565b9150620023548262002e66565b604082019050919050565b60006200236e603783620029fd565b91506200237b8262002eb5565b604082019050919050565b600062002395601d83620029fd565b9150620023a28262002f04565b602082019050919050565b6000620023bc601c83620029fd565b9150620023c98262002f2d565b602082019050919050565b6000620023e3603083620029fd565b9150620023f08262002f56565b604082019050919050565b60006200240a602683620029fd565b9150620024178262002fa5565b604082019050919050565b600062002431601883620029fd565b91506200243e8262002ff4565b602082019050919050565b600062002458602083620029fd565b915062002465826200301d565b602082019050919050565b60006200247f602083620029fd565b91506200248c8262003046565b602082019050919050565b6000620024a6602583620029fd565b9150620024b3826200306f565b604082019050919050565b6000620024cd602483620029fd565b9150620024da82620030be565b604082019050919050565b6000620024f4602983620029fd565b915062002501826200310d565b604082019050919050565b60006200251b602883620029fd565b915062002528826200315c565b604082019050919050565b600062002542602583620029fd565b91506200254f82620031ab565b604082019050919050565b600062002569601f83620029fd565b91506200257682620031fa565b602082019050919050565b6200258c8162002b93565b82525050565b6200259d8162002b93565b82525050565b620025b8620025b28262002b93565b62002c8c565b82525050565b620025c98162002b9d565b82525050565b6000620025dd8284620025a3565b60208201915081905092915050565b6000620025fa8286620025a3565b6020820191506200260c8285620021ec565b6014820191506200261e8284620025a3565b602082019150819050949350505050565b6000602082019050620026466000830184620021db565b92915050565b6000606082019050620026636000830186620021db565b620026726020830185620021db565b620026816040830184620021db565b949350505050565b6000604082019050620026a06000830185620021db565b620026af602083018462002592565b9392505050565b60006020820190508181036000830152620026d2818462002207565b905092915050565b6000602082019050620026f1600083018462002271565b92915050565b6000602082019050818103600083015262002713818462002282565b905092915050565b600060208201905081810360008301526200273681620022c3565b9050919050565b600060208201905081810360008301526200275881620022ea565b9050919050565b600060208201905081810360008301526200277a8162002311565b9050919050565b600060208201905081810360008301526200279c8162002338565b9050919050565b60006020820190508181036000830152620027be816200235f565b9050919050565b60006020820190508181036000830152620027e08162002386565b9050919050565b600060208201905081810360008301526200280281620023ad565b9050919050565b600060208201905081810360008301526200282481620023d4565b9050919050565b600060208201905081810360008301526200284681620023fb565b9050919050565b60006020820190508181036000830152620028688162002422565b9050919050565b600060208201905081810360008301526200288a8162002449565b9050919050565b60006020820190508181036000830152620028ac8162002470565b9050919050565b60006020820190508181036000830152620028ce8162002497565b9050919050565b60006020820190508181036000830152620028f081620024be565b9050919050565b600060208201905081810360008301526200291281620024e5565b9050919050565b6000602082019050818103600083015262002934816200250c565b9050919050565b60006020820190508181036000830152620029568162002533565b9050919050565b6000602082019050818103600083015262002978816200255a565b9050919050565b600060208201905062002996600083018462002592565b92915050565b6000602082019050620029b36000830184620025be565b92915050565b6000819050602082019050919050565b600081519050919050565b600081519050919050565b6000602082019050919050565b600082825260208201905092915050565b600082825260208201905092915050565b600062002a1b8262002b93565b915062002a288362002b93565b9250827fffffffffffffffffffffffffffffffffffffffffffffffffffffffffffffffff0382111562002a605762002a5f62002cce565b5b828201905092915050565b600062002a788262002b93565b915062002a858362002b93565b92508262002a985762002a9762002cfd565b5b828204905092915050565b600062002ab08262002b93565b915062002abd8362002b93565b9250817fffffffffffffffffffffffffffffffffffffffffffffffffffffffffffffffff048311821515161562002af95762002af862002cce565b5b828202905092915050565b600062002b118262002b93565b915062002b1e8362002b93565b92508282101562002b345762002b3362002cce565b5b828203905092915050565b600062002b4c8262002b73565b9050919050565b600062002b608262002b73565b9050919050565b60008115159050919050565b600073ffffffffffffffffffffffffffffffffffffffff82169050919050565b6000819050919050565b600060ff82169050919050565b60005b8381101562002bca57808201518184015260208101905062002bad565b8381111562002bda576000848401525b50505050565b6000600282049050600182168062002bf957607f821691505b6020821081141562002c105762002c0f62002d2c565b5b50919050565b600062002c238262002b93565b91507fffffffffffffffffffffffffffffffffffffffffffffffffffffffffffffffff82141562002c595762002c5862002cce565b5b600182019050919050565b600062002c718262002c78565b9050919050565b600062002c858262002d6c565b9050919050565b6000819050919050565b600062002ca38262002b93565b915062002cb08362002b93565b92508262002cc35762002cc262002cfd565b5b828206905092915050565b7f4e487b7100000000000000000000000000000000000000000000000000000000600052601160045260246000fd5b7f4e487b7100000000000000000000000000000000000000000000000000000000600052601260045260246000fd5b7f4e487b7100000000000000000000000000000000000000000000000000000000600052602260045260246000fd5b6000601f19601f8301169050919050565b60008160601b9050919050565b7f45524332303a207472616e7366657220746f20746865207a65726f206164647260008201527f6573730000000000000000000000000000000000000000000000000000000000602082015250565b7f446562657320656e7669617220756e612063616e74696461642064652045746860008201527f6572206d61796f722061206365726f2e00000000000000000000000000000000602082015250565b7f4f776e61626c653a206e6577206f776e657220697320746865207a65726f206160008201527f6464726573730000000000000000000000000000000000000000000000000000602082015250565b7f45524332303a20617070726f766520746f20746865207a65726f20616464726560008201527f7373000000000000000000000000000000000000000000000000000000000000602082015250565b7f4c6120646972656363696f6e2064652064657374696e6f206e6f20707565646560008201527f20736572206c6120646972656363696f6e206365726f2e000000000000000000602082015250565b7f45524332303a20696e73756666696369656e7420616c6c6f77616e6365000000600082015250565b7f4e6f207469656e657320746f6b656e7320737566696369656e74657300000000600082015250565b7f4e6563657369746173206465766f6c76657220756e206e756d65726f2064652060008201527f746f6b656e73206d61796f722061203000000000000000000000000000000000602082015250565b7f45524332303a207472616e7366657220616d6f756e742065786365656473206260008201527f616c616e63650000000000000000000000000000000000000000000000000000602082015250565b7f4e6f2068617920626f6c65746f7320636f6d707261646f730000000000000000600082015250565b7f436f6d70726120756e206e756d65726f206d656e6f7220646520746f6b656e73600082015250565b7f4f776e61626c653a2063616c6c6572206973206e6f7420746865206f776e6572600082015250565b7f45524332303a207472616e736665722066726f6d20746865207a65726f20616460008201527f6472657373000000000000000000000000000000000000000000000000000000602082015250565b7f45524332303a20617070726f76652066726f6d20746865207a65726f2061646460008201527f7265737300000000000000000000000000000000000000000000000000000000602082015250565b7f436f6d707261206d656e6f7320746f6b656e73206f207061676120636f6e206d60008201527f6173206574686572730000000000000000000000000000000000000000000000602082015250565b7f4e6f207469656e6573206c6f7320746f6b656e7320717565206465736561732060008201527f6465766f6c766572000000000000000000000000000000000000000000000000602082015250565b7f45524332303a2064656372656173656420616c6c6f77616e63652062656c6f7760008201527f207a65726f000000000000000000000000000000000000000000000000000000602082015250565b7f45524332303a206d696e7420746f20746865207a65726f206164647265737300600082015250565b6200322e8162002b3f565b81146200323a57600080fd5b50565b620032488162002b53565b81146200325457600080fd5b50565b620032628162002b93565b81146200326e57600080fd5b5056fe608060405234801561001057600080fd5b50604051610703380380610703833981810160405281019061003291906101e8565b60405180608001604052808473ffffffffffffffffffffffffffffffffffffffff1681526020018373ffffffffffffffffffffffffffffffffffffffff1681526020018273ffffffffffffffffffffffffffffffffffffffff1681526020013073ffffffffffffffffffffffffffffffffffffffff168152506000808201518160000160006101000a81548173ffffffffffffffffffffffffffffffffffffffff021916908373ffffffffffffffffffffffffffffffffffffffff16021790555060208201518160010160006101000a81548173ffffffffffffffffffffffffffffffffffffffff021916908373ffffffffffffffffffffffffffffffffffffffff16021790555060408201518160020160006101000a81548173ffffffffffffffffffffffffffffffffffffffff021916908373ffffffffffffffffffffffffffffffffffffffff16021790555060608201518160030160006101000a81548173ffffffffffffffffffffffffffffffffffffffff021916908373ffffffffffffffffffffffffffffffffffffffff160217905550905050505050610280565b6000815190506101e281610269565b92915050565b6000806000606084860312156101fd57600080fd5b600061020b868287016101d3565b935050602061021c868287016101d3565b925050604061022d868287016101d3565b9150509250925092565b600061024282610249565b9050919050565b600073ffffffffffffffffffffffffffffffffffffffff82169050919050565b61027281610237565b811461027d57600080fd5b50565b6104748061028f6000396000f3fe608060405234801561001057600080fd5b50600436106100365760003560e01c8063120e85231461003b5780633c4f81cd14610057575b600080fd5b61005560048036038101906100509190610269565b610078565b005b61005f6101a1565b60405161006f94939291906102e6565b60405180910390f35b600060010160009054906101000a900473ffffffffffffffffffffffffffffffffffffffff1673ffffffffffffffffffffffffffffffffffffffff163373ffffffffffffffffffffffffffffffffffffffff161461010b576040517f08c379a000000000000000000000000000000000000000000000000000000000815260040161010290610354565b60405180910390fd5b600060020160009054906101000a900473ffffffffffffffffffffffffffffffffffffffff1673ffffffffffffffffffffffffffffffffffffffff1663a144819483836040518363ffffffff1660e01b815260040161016b92919061032b565b600060405180830381600087803b15801561018557600080fd5b505af1158015610199573d6000803e3d6000fd5b505050505050565b60008060000160009054906101000a900473ffffffffffffffffffffffffffffffffffffffff16908060010160009054906101000a900473ffffffffffffffffffffffffffffffffffffffff16908060020160009054906101000a900473ffffffffffffffffffffffffffffffffffffffff16908060030160009054906101000a900473ffffffffffffffffffffffffffffffffffffffff16905084565b60008135905061024e81610410565b92915050565b60008135905061026381610427565b92915050565b6000806040838503121561027c57600080fd5b600061028a8582860161023f565b925050602061029b85828601610254565b9150509250929050565b6102ae81610385565b82525050565b60006102c1602d83610374565b91506102cc826103c1565b604082019050919050565b6102e0816103b7565b82525050565b60006080820190506102fb60008301876102a5565b61030860208301866102a5565b61031560408301856102a5565b61032260608301846102a5565b95945050505050565b600060408201905061034060008301856102a5565b61034d60208301846102d7565b9392505050565b6000602082019050818103600083015261036d816102b4565b9050919050565b600082825260208201905092915050565b600061039082610397565b9050919050565b600073ffffffffffffffffffffffffffffffffffffffff82169050919050565b6000819050919050565b7f4e6f207469656e6573207065726d69736f73207061726120656a65637574617260008201527f20657374612066756e63696f6e00000000000000000000000000000000000000602082015250565b61041981610385565b811461042457600080fd5b50565b610430816103b7565b811461043b57600080fd5b5056fea264697066735822122045780e571b176061093cadf9f955d0e7e56b6157ea587fc12e201b8a850cf03364736f6c63430008040033a2646970667358221220b33d6b4998abbca98c4c3dc2ddd1948f6d562b93ecc9cb8678ed5d9f4513351264736f6c6343000804003360806040523480156200001157600080fd5b506040518060400160405280600781526020017f4c6f7465726961000000000000000000000000000000000000000000000000008152506040518060400160405280600381526020017f5354450000000000000000000000000000000000000000000000000000000000815250816000908051906020019062000096929190620000f9565b508060019080519060200190620000af929190620000f9565b50505033600660006101000a81548173ffffffffffffffffffffffffffffffffffffffff021916908373ffffffffffffffffffffffffffffffffffffffff1602179055506200020e565b8280546200010790620001a9565b90600052602060002090601f0160209004810192826200012b576000855562000177565b82601f106200014657805160ff191683800117855562000177565b8280016001018555821562000177579182015b828111156200017657825182559160200191906001019062000159565b5b5090506200018691906200018a565b5090565b5b80821115620001a55760008160009055506001016200018b565b5090565b60006002820490506001821680620001c257607f821691505b60208210811415620001d957620001d8620001df565b5b50919050565b7f4e487b7100000000000000000000000000000000000000000000000000000000600052602260045260246000fd5b6127f1806200021e6000396000f3fe608060405234801561001057600080fd5b50600436106100f55760003560e01c80636352211e11610097578063a22cb46511610066578063a22cb46514610284578063b88d4fde146102a0578063c87b56dd146102bc578063e985e9c5146102ec576100f5565b80636352211e146101ea57806370a082311461021a57806395d89b411461024a578063a144819414610268576100f5565b8063095ea7b3116100d3578063095ea7b31461017857806323b872dd1461019457806342842e0e146101b05780635aa0c73d146101cc576100f5565b806301ffc9a7146100fa57806306fdde031461012a578063081812fc14610148575b600080fd5b610114600480360381019061010f9190611cd0565b61031c565b604051610121919061204a565b60405180910390f35b6101326103fe565b60405161013f9190612065565b60405180910390f35b610162600480360381019061015d9190611d22565b610490565b60405161016f9190611fe3565b60405180910390f35b610192600480360381019061018d9190611c94565b6104d6565b005b6101ae60048036038101906101a99190611b8e565b6105ee565b005b6101ca60048036038101906101c59190611b8e565b61064e565b005b6101d461066e565b6040516101e19190611fe3565b60405180910390f35b61020460048036038101906101ff9190611d22565b610694565b6040516102119190611fe3565b60405180910390f35b610234600480360381019061022f9190611b00565b61071b565b6040516102419190612207565b60405180910390f35b6102526107d3565b60405161025f9190612065565b60405180910390f35b610282600480360381019061027d9190611c94565b610865565b005b61029e60048036038101906102999190611c58565b61098b565b005b6102ba60048036038101906102b59190611bdd565b6109a1565b005b6102d660048036038101906102d19190611d22565b610a03565b6040516102e39190612065565b60405180910390f35b61030660048036038101906103019190611b52565b610a6b565b604051610313919061204a565b60405180910390f35b60007f80ac58cd000000000000000000000000000000000000000000000000000000007bffffffffffffffffffffffffffffffffffffffffffffffffffffffff1916827bffffffffffffffffffffffffffffffffffffffffffffffffffffffff191614806103e757507f5b5e139f000000000000000000000000000000000000000000000000000000007bffffffffffffffffffffffffffffffffffffffffffffffffffffffff1916827bffffffffffffffffffffffffffffffffffffffffffffffffffffffff1916145b806103f757506103f682610aff565b5b9050919050565b60606000805461040d90612371565b80601f016020809104026020016040519081016040528092919081815260200182805461043990612371565b80156104865780601f1061045b57610100808354040283529160200191610486565b820191906000526020600020905b81548152906001019060200180831161046957829003601f168201915b5050505050905090565b600061049b82610b69565b6004600083815260200190815260200160002060009054906101000a900473ffffffffffffffffffffffffffffffffffffffff169050919050565b60006104e182610694565b90508073ffffffffffffffffffffffffffffffffffffffff168373ffffffffffffffffffffffffffffffffffffffff161415610552576040517f08c379a0000000000000000000000000000000000000000000000000000000008152600401610549906121c7565b60405180910390fd5b8073ffffffffffffffffffffffffffffffffffffffff16610571610bb4565b73ffffffffffffffffffffffffffffffffffffffff1614806105a0575061059f8161059a610bb4565b610a6b565b5b6105df576040517f08c379a00000000000000000000000000000000000000000000000000000000081526004016105d6906121e7565b60405180910390fd5b6105e98383610bbc565b505050565b6105ff6105f9610bb4565b82610c75565b61063e576040517f08c379a000000000000000000000000000000000000000000000000000000000815260040161063590612087565b60405180910390fd5b610649838383610d0a565b505050565b610669838383604051806020016040528060008152506109a1565b505050565b600660009054906101000a900473ffffffffffffffffffffffffffffffffffffffff1681565b6000806106a083611004565b9050600073ffffffffffffffffffffffffffffffffffffffff168173ffffffffffffffffffffffffffffffffffffffff161415610712576040517f08c379a0000000000000000000000000000000000000000000000000000000008152600401610709906121a7565b60405180910390fd5b80915050919050565b60008073ffffffffffffffffffffffffffffffffffffffff168273ffffffffffffffffffffffffffffffffffffffff16141561078c576040517f08c379a000000000000000000000000000000000000000000000000000000000815260040161078390612147565b60405180910390fd5b600360008373ffffffffffffffffffffffffffffffffffffffff1673ffffffffffffffffffffffffffffffffffffffff168152602001908152602001600020549050919050565b6060600180546107e290612371565b80601f016020809104026020016040519081016040528092919081815260200182805461080e90612371565b801561085b5780601f106108305761010080835404028352916020019161085b565b820191906000526020600020905b81548152906001019060200180831161083e57829003601f168201915b5050505050905090565b600660009054906101000a900473ffffffffffffffffffffffffffffffffffffffff1673ffffffffffffffffffffffffffffffffffffffff16635d0eaaaf836040518263ffffffff1660e01b81526004016108c09190611fe3565b60206040518083038186803b1580156108d857600080fd5b505afa1580156108ec573d6000803e3d6000fd5b505050506040513d601f19601f820116820180604052508101906109109190611b29565b73ffffffffffffffffffffffffffffffffffffffff163373ffffffffffffffffffffffffffffffffffffffff161461097d576040517f08c379a000000000000000000000000000000000000000000000000000000000815260040161097490612187565b60405180910390fd5b6109878282611041565b5050565b61099d610996610bb4565b838361105f565b5050565b6109b26109ac610bb4565b83610c75565b6109f1576040517f08c379a00000000000000000000000000000000000000000000000000000000081526004016109e890612087565b60405180910390fd5b6109fd848484846111cc565b50505050565b6060610a0e82610b69565b6000610a18611228565b90506000815111610a385760405180602001604052806000815250610a63565b80610a428461123f565b604051602001610a53929190611fbf565b6040516020818303038152906040525b915050919050565b6000600560008473ffffffffffffffffffffffffffffffffffffffff1673ffffffffffffffffffffffffffffffffffffffff16815260200190815260200160002060008373ffffffffffffffffffffffffffffffffffffffff1673ffffffffffffffffffffffffffffffffffffffff16815260200190815260200160002060009054906101000a900460ff16905092915050565b60007f01ffc9a7000000000000000000000000000000000000000000000000000000007bffffffffffffffffffffffffffffffffffffffffffffffffffffffff1916827bffffffffffffffffffffffffffffffffffffffffffffffffffffffff1916149050919050565b610b7281611363565b610bb1576040517f08c379a0000000000000000000000000000000000000000000000000000000008152600401610ba8906121a7565b60405180910390fd5b50565b600033905090565b816004600083815260200190815260200160002060006101000a81548173ffffffffffffffffffffffffffffffffffffffff021916908373ffffffffffffffffffffffffffffffffffffffff160217905550808273ffffffffffffffffffffffffffffffffffffffff16610c2f83610694565b73ffffffffffffffffffffffffffffffffffffffff167f8c5be1e5ebec7d5bd14f71427d1e84f3dd0314c0f7b2291e5b200ac8c7c3b92560405160405180910390a45050565b600080610c8183610694565b90508073ffffffffffffffffffffffffffffffffffffffff168473ffffffffffffffffffffffffffffffffffffffff161480610cc35750610cc28185610a6b565b5b80610d0157508373ffffffffffffffffffffffffffffffffffffffff16610ce984610490565b73ffffffffffffffffffffffffffffffffffffffff16145b91505092915050565b8273ffffffffffffffffffffffffffffffffffffffff16610d2a82610694565b73ffffffffffffffffffffffffffffffffffffffff1614610d80576040517f08c379a0000000000000000000000000000000000000000000000000000000008152600401610d77906120c7565b60405180910390fd5b600073ffffffffffffffffffffffffffffffffffffffff168273ffffffffffffffffffffffffffffffffffffffff161415610df0576040517f08c379a0000000000000000000000000000000000000000000000000000000008152600401610de790612107565b60405180910390fd5b610dfd83838360016113a4565b8273ffffffffffffffffffffffffffffffffffffffff16610e1d82610694565b73ffffffffffffffffffffffffffffffffffffffff1614610e73576040517f08c379a0000000000000000000000000000000000000000000000000000000008152600401610e6a906120c7565b60405180910390fd5b6004600082815260200190815260200160002060006101000a81549073ffffffffffffffffffffffffffffffffffffffff02191690556001600360008573ffffffffffffffffffffffffffffffffffffffff1673ffffffffffffffffffffffffffffffffffffffff168152602001908152602001600020600082825403925050819055506001600360008473ffffffffffffffffffffffffffffffffffffffff1673ffffffffffffffffffffffffffffffffffffffff16815260200190815260200160002060008282540192505081905550816002600083815260200190815260200160002060006101000a81548173ffffffffffffffffffffffffffffffffffffffff021916908373ffffffffffffffffffffffffffffffffffffffff160217905550808273ffffffffffffffffffffffffffffffffffffffff168473ffffffffffffffffffffffffffffffffffffffff167fddf252ad1be2c89b69c2b068fc378daa952ba7f163c4a11628f55a4df523b3ef60405160405180910390a4610fff83838360016113aa565b505050565b60006002600083815260200190815260200160002060009054906101000a900473ffffffffffffffffffffffffffffffffffffffff169050919050565b61105b8282604051806020016040528060008152506113b0565b5050565b8173ffffffffffffffffffffffffffffffffffffffff168373ffffffffffffffffffffffffffffffffffffffff1614156110ce576040517f08c379a00000000000000000000000000000000000000000000000000000000081526004016110c590612127565b60405180910390fd5b80600560008573ffffffffffffffffffffffffffffffffffffffff1673ffffffffffffffffffffffffffffffffffffffff16815260200190815260200160002060008473ffffffffffffffffffffffffffffffffffffffff1673ffffffffffffffffffffffffffffffffffffffff16815260200190815260200160002060006101000a81548160ff0219169083151502179055508173ffffffffffffffffffffffffffffffffffffffff168373ffffffffffffffffffffffffffffffffffffffff167f17307eab39ab6107e8899845ad3d59bd9653f200f220920489ca2b5937696c31836040516111bf919061204a565b60405180910390a3505050565b6111d7848484610d0a565b6111e38484848461140b565b611222576040517f08c379a0000000000000000000000000000000000000000000000000000000008152600401611219906120a7565b60405180910390fd5b50505050565b606060405180602001604052806000815250905090565b60606000600161124e846115a2565b01905060008167ffffffffffffffff811115611293577f4e487b7100000000000000000000000000000000000000000000000000000000600052604160045260246000fd5b6040519080825280601f01601f1916602001820160405280156112c55781602001600182028036833780820191505090505b509050600082602001820190505b600115611358578080600190039150507f3031323334353637383961626364656600000000000000000000000000000000600a86061a8153600a8581611342577f4e487b7100000000000000000000000000000000000000000000000000000000600052601260045260246000fd5b049450600085141561135357611358565b6112d3565b819350505050919050565b60008073ffffffffffffffffffffffffffffffffffffffff1661138583611004565b73ffffffffffffffffffffffffffffffffffffffff1614159050919050565b50505050565b50505050565b6113ba83836117d9565b6113c7600084848461140b565b611406576040517f08c379a00000000000000000000000000000000000000000000000000000000081526004016113fd906120a7565b60405180910390fd5b505050565b600061142c8473ffffffffffffffffffffffffffffffffffffffff166119f7565b15611595578373ffffffffffffffffffffffffffffffffffffffff1663150b7a02611455610bb4565b8786866040518563ffffffff1660e01b81526004016114779493929190611ffe565b602060405180830381600087803b15801561149157600080fd5b505af19250505080156114c257506040513d601f19601f820116820180604052508101906114bf9190611cf9565b60015b611545573d80600081146114f2576040519150601f19603f3d011682016040523d82523d6000602084013e6114f7565b606091505b5060008151141561153d576040517f08c379a0000000000000000000000000000000000000000000000000000000008152600401611534906120a7565b60405180910390fd5b805181602001fd5b63150b7a0260e01b7bffffffffffffffffffffffffffffffffffffffffffffffffffffffff1916817bffffffffffffffffffffffffffffffffffffffffffffffffffffffff19161491505061159a565b600190505b949350505050565b600080600090507a184f03e93ff9f4daa797ed6e38ed64bf6a1f0100000000000000008310611626577a184f03e93ff9f4daa797ed6e38ed64bf6a1f010000000000000000838161161c577f4e487b7100000000000000000000000000000000000000000000000000000000600052601260045260246000fd5b0492506040810190505b6d04ee2d6d415b85acef81000000008310611689576d04ee2d6d415b85acef8100000000838161167f577f4e487b7100000000000000000000000000000000000000000000000000000000600052601260045260246000fd5b0492506020810190505b662386f26fc1000083106116de57662386f26fc1000083816116d4577f4e487b7100000000000000000000000000000000000000000000000000000000600052601260045260246000fd5b0492506010810190505b6305f5e100831061172d576305f5e1008381611723577f4e487b7100000000000000000000000000000000000000000000000000000000600052601260045260246000fd5b0492506008810190505b612710831061177857612710838161176e577f4e487b7100000000000000000000000000000000000000000000000000000000600052601260045260246000fd5b0492506004810190505b606483106117c157606483816117b7577f4e487b7100000000000000000000000000000000000000000000000000000000600052601260045260246000fd5b0492506002810190505b600a83106117d0576001810190505b80915050919050565b600073ffffffffffffffffffffffffffffffffffffffff168273ffffffffffffffffffffffffffffffffffffffff161415611849576040517f08c379a000000000000000000000000000000000000000000000000000000000815260040161184090612167565b60405180910390fd5b61185281611363565b15611892576040517f08c379a0000000000000000000000000000000000000000000000000000000008152600401611889906120e7565b60405180910390fd5b6118a06000838360016113a4565b6118a981611363565b156118e9576040517f08c379a00000000000000000000000000000000000000000000000000000000081526004016118e0906120e7565b60405180910390fd5b6001600360008473ffffffffffffffffffffffffffffffffffffffff1673ffffffffffffffffffffffffffffffffffffffff16815260200190815260200160002060008282540192505081905550816002600083815260200190815260200160002060006101000a81548173ffffffffffffffffffffffffffffffffffffffff021916908373ffffffffffffffffffffffffffffffffffffffff160217905550808273ffffffffffffffffffffffffffffffffffffffff16600073ffffffffffffffffffffffffffffffffffffffff167fddf252ad1be2c89b69c2b068fc378daa952ba7f163c4a11628f55a4df523b3ef60405160405180910390a46119f36000838360016113aa565b5050565b6000808273ffffffffffffffffffffffffffffffffffffffff163b119050919050565b6000611a2d611a2884612247565b612222565b905082815260208101848484011115611a4557600080fd5b611a5084828561232f565b509392505050565b600081359050611a678161275f565b92915050565b600081519050611a7c8161275f565b92915050565b600081359050611a9181612776565b92915050565b600081359050611aa68161278d565b92915050565b600081519050611abb8161278d565b92915050565b600082601f830112611ad257600080fd5b8135611ae2848260208601611a1a565b91505092915050565b600081359050611afa816127a4565b92915050565b600060208284031215611b1257600080fd5b6000611b2084828501611a58565b91505092915050565b600060208284031215611b3b57600080fd5b6000611b4984828501611a6d565b91505092915050565b60008060408385031215611b6557600080fd5b6000611b7385828601611a58565b9250506020611b8485828601611a58565b9150509250929050565b600080600060608486031215611ba357600080fd5b6000611bb186828701611a58565b9350506020611bc286828701611a58565b9250506040611bd386828701611aeb565b9150509250925092565b60008060008060808587031215611bf357600080fd5b6000611c0187828801611a58565b9450506020611c1287828801611a58565b9350506040611c2387828801611aeb565b925050606085013567ffffffffffffffff811115611c4057600080fd5b611c4c87828801611ac1565b91505092959194509250565b60008060408385031215611c6b57600080fd5b6000611c7985828601611a58565b9250506020611c8a85828601611a82565b9150509250929050565b60008060408385031215611ca757600080fd5b6000611cb585828601611a58565b9250506020611cc685828601611aeb565b9150509250929050565b600060208284031215611ce257600080fd5b6000611cf084828501611a97565b91505092915050565b600060208284031215611d0b57600080fd5b6000611d1984828501611aac565b91505092915050565b600060208284031215611d3457600080fd5b6000611d4284828501611aeb565b91505092915050565b611d54816122bb565b82525050565b611d63816122cd565b82525050565b6000611d7482612278565b611d7e818561228e565b9350611d8e81856020860161233e565b611d9781612432565b840191505092915050565b6000611dad82612283565b611db7818561229f565b9350611dc781856020860161233e565b611dd081612432565b840191505092915050565b6000611de682612283565b611df081856122b0565b9350611e0081856020860161233e565b80840191505092915050565b6000611e19602d8361229f565b9150611e2482612443565b604082019050919050565b6000611e3c60328361229f565b9150611e4782612492565b604082019050919050565b6000611e5f60258361229f565b9150611e6a826124e1565b604082019050919050565b6000611e82601c8361229f565b9150611e8d82612530565b602082019050919050565b6000611ea560248361229f565b9150611eb082612559565b604082019050919050565b6000611ec860198361229f565b9150611ed3826125a8565b602082019050919050565b6000611eeb60298361229f565b9150611ef6826125d1565b604082019050919050565b6000611f0e60208361229f565b9150611f1982612620565b602082019050919050565b6000611f31602d8361229f565b9150611f3c82612649565b604082019050919050565b6000611f5460188361229f565b9150611f5f82612698565b602082019050919050565b6000611f7760218361229f565b9150611f82826126c1565b604082019050919050565b6000611f9a603d8361229f565b9150611fa582612710565b604082019050919050565b611fb981612325565b82525050565b6000611fcb8285611ddb565b9150611fd78284611ddb565b91508190509392505050565b6000602082019050611ff86000830184611d4b565b92915050565b60006080820190506120136000830187611d4b565b6120206020830186611d4b565b61202d6040830185611fb0565b818103606083015261203f8184611d69565b905095945050505050565b600060208201905061205f6000830184611d5a565b92915050565b6000602082019050818103600083015261207f8184611da2565b905092915050565b600060208201905081810360008301526120a081611e0c565b9050919050565b600060208201905081810360008301526120c081611e2f565b9050919050565b600060208201905081810360008301526120e081611e52565b9050919050565b6000602082019050818103600083015261210081611e75565b9050919050565b6000602082019050818103600083015261212081611e98565b9050919050565b6000602082019050818103600083015261214081611ebb565b9050919050565b6000602082019050818103600083015261216081611ede565b9050919050565b6000602082019050818103600083015261218081611f01565b9050919050565b600060208201905081810360008301526121a081611f24565b9050919050565b600060208201905081810360008301526121c081611f47565b9050919050565b600060208201905081810360008301526121e081611f6a565b9050919050565b6000602082019050818103600083015261220081611f8d565b9050919050565b600060208201905061221c6000830184611fb0565b92915050565b600061222c61223d565b905061223882826123a3565b919050565b6000604051905090565b600067ffffffffffffffff82111561226257612261612403565b5b61226b82612432565b9050602081019050919050565b600081519050919050565b600081519050919050565b600082825260208201905092915050565b600082825260208201905092915050565b600081905092915050565b60006122c682612305565b9050919050565b60008115159050919050565b60007fffffffff0000000000000000000000000000000000000000000000000000000082169050919050565b600073ffffffffffffffffffffffffffffffffffffffff82169050919050565b6000819050919050565b82818337600083830152505050565b60005b8381101561235c578082015181840152602081019050612341565b8381111561236b576000848401525b50505050565b6000600282049050600182168061238957607f821691505b6020821081141561239d5761239c6123d4565b5b50919050565b6123ac82612432565b810181811067ffffffffffffffff821117156123cb576123ca612403565b5b80604052505050565b7f4e487b7100000000000000000000000000000000000000000000000000000000600052602260045260246000fd5b7f4e487b7100000000000000000000000000000000000000000000000000000000600052604160045260246000fd5b6000601f19601f8301169050919050565b7f4552433732313a2063616c6c6572206973206e6f7420746f6b656e206f776e6560008201527f72206f7220617070726f76656400000000000000000000000000000000000000602082015250565b7f4552433732313a207472616e7366657220746f206e6f6e20455243373231526560008201527f63656976657220696d706c656d656e7465720000000000000000000000000000602082015250565b7f4552433732313a207472616e736665722066726f6d20696e636f72726563742060008201527f6f776e6572000000000000000000000000000000000000000000000000000000602082015250565b7f4552433732313a20746f6b656e20616c7265616479206d696e74656400000000600082015250565b7f4552433732313a207472616e7366657220746f20746865207a65726f2061646460008201527f7265737300000000000000000000000000000000000000000000000000000000602082015250565b7f4552433732313a20617070726f766520746f2063616c6c657200000000000000600082015250565b7f4552433732313a2061646472657373207a65726f206973206e6f74206120766160008201527f6c6964206f776e65720000000000000000000000000000000000000000000000602082015250565b7f4552433732313a206d696e7420746f20746865207a65726f2061646472657373600082015250565b7f4e6f207469656e6573207065726d69736f73207061726120656a65637574617260008201527f20657374612066756e63696f6e00000000000000000000000000000000000000602082015250565b7f4552433732313a20696e76616c696420746f6b656e2049440000000000000000600082015250565b7f4552433732313a20617070726f76616c20746f2063757272656e74206f776e6560008201527f7200000000000000000000000000000000000000000000000000000000000000602082015250565b7f4552433732313a20617070726f76652063616c6c6572206973206e6f7420746f60008201527f6b656e206f776e6572206f7220617070726f76656420666f7220616c6c000000602082015250565b612768816122bb565b811461277357600080fd5b50565b61277f816122cd565b811461278a57600080fd5b50565b612796816122d9565b81146127a157600080fd5b50565b6127ad81612325565b81146127b857600080fd5b5056fea26469706673582212208f645e0cfb7f1559d29835a679877df8142ba1fd62b2396cee7649664132647264736f6c63430008040033",
  "immutableReferences": {},
  "source": "// SPDX-License-Identifier: MIT\r\npragma solidity ^0.8.4;\r\n\r\nimport \"@openzeppelin/contracts/token/ERC20/ERC20.sol\";\r\nimport \"@openzeppelin/contracts/token/ERC721/ERC721.sol\";\r\nimport \"@openzeppelin/contracts/access/Ownable.sol\";\r\n\r\n\r\ncontract loteria is ERC20, Ownable {\r\n\r\n    // ============================================\r\n    // Gestion de los tokens\r\n    // ============================================\r\n\r\n    // Direccion del contrato NFT del proyecto\r\n    address public nft;\r\n\r\n    // Constructor \r\n    constructor() ERC20(\"Loteria\", \"JA\"){\r\n        _mint(address(this), 1000);\r\n        nft = address(new mainERC721());\r\n    }\r\n\r\n    // Ganador del premio de la loteria\r\n    address public ganador;\r\n\r\n    // Registro del usuario\r\n    mapping(address => address) public usuario_contract;\r\n\r\n    // Precio de los tokens ERC-20\r\n    function precioTokens(uint256 _numTokens) internal pure returns (uint256){\r\n        return _numTokens * (1 ether);\r\n    }\r\n\r\n    // Agrega esta funcin en tu contrato \"loteria\"\r\n    function obtenerPrecioTokens(uint256 _numTokens) public pure returns (uint256) {\r\n        return precioTokens(_numTokens);\r\n    }\r\n\r\n\r\n    // Visualizacion del balance de tokens ERC-20 de un usuario\r\n    function balanceTokens(address _account) public view returns (uint256){\r\n        return balanceOf(_account);\r\n    }\r\n\r\n    function verBalance(address _account) public view returns (uint256){\r\n        return _account.balance;\r\n    }\r\n\r\n    // Visualizacion del balance de tokens ERC-20 del Smart Contract\r\n    function balanceTokensSC() public view returns (uint256){\r\n        return balanceOf(address(this));\r\n    }\r\n\r\n    // Visualizacion del balance de ethers del Smart Contract\r\n    function balanceEthersSC() public view returns (uint256){\r\n        return address(this).balance / 10**18;\r\n    }\r\n\r\n    // Generacion de nuevos Tokens ERC-20\r\n    function mint(uint256 _cantidad) public onlyOwner {\r\n        _mint(address(this), _cantidad);\r\n    }\r\n\r\n    // Registro de usuarios\r\n    function registrar() internal {\r\n        address addr_personal_contract = address(new boletosNFTs(msg.sender, address(this), nft));\r\n        usuario_contract[msg.sender] = addr_personal_contract; \r\n    }\r\n\r\n    // Informacion de un usuario\r\n    function usersInfo(address _account) public view returns (address){\r\n        return usuario_contract[_account];\r\n    }\r\n\r\n    function transferEther(address payable _to) public payable {\r\n        require(_to != address(0), \"La direccion de destino no puede ser la direccion cero.\");\r\n        require(msg.value > 0, \"Debes enviar una cantidad de Ether mayor a cero.\");\r\n\r\n        // Transferir Ether\r\n        _to.transfer(msg.value);\r\n    }\r\n\r\n\r\n    // Compra de tokens ERC-20\r\n    function compraTokens(uint256 _numTokens) public payable {\r\n        // Registro del ususario\r\n        if(usuario_contract[msg.sender] == address(0)){\r\n            registrar();\r\n        }\r\n        // Establecimiento del coste de los tokens a comprar\r\n        uint256 coste = precioTokens(_numTokens);\r\n        // Evaluacion del dinero que el cliente paga por los tokens\r\n        require(msg.value >= coste, \"Compra menos tokens o paga con mas ethers\");\r\n        // Obtencion del numero de tokens ERC-20 disponibles\r\n        uint256 balance = balanceTokensSC();\r\n        require(_numTokens <= balance, \"Compra un numero menor de tokens\");\r\n        // Devolucion del dinero sobrante\r\n        uint256 returnValue = msg.value - coste;\r\n        // El Smart Contract devuelve la cantidad restante\r\n        payable(msg.sender).transfer(returnValue);\r\n        // Envio de los tokens al cliente/usuario\r\n        _transfer(address(this), msg.sender, _numTokens);\r\n    }\r\n\r\n    // Devolucion de tokens al Smart Contract\r\n    function devolverTokens(uint _numTokens) public payable {\r\n        // El numero de tokens debe ser mayor a 0\r\n        require(_numTokens > 0, \"Necesitas devolver un numero de tokens mayor a 0\");\r\n        // El usuario debe acreditar tener los tokens que quiere devolver\r\n        require(_numTokens <= balanceTokens(msg.sender), \"No tienes los tokens que deseas devolver\");\r\n        // El usuario transfiere los tokens al Smart Contract\r\n        _transfer(msg.sender, address(this), _numTokens);\r\n        // El Smart Contract envia los ethers al usuario\r\n        payable(msg.sender).transfer(precioTokens(_numTokens));\r\n    }\r\n\r\n    // ============================================\r\n    // Gestion de la loteria\r\n    // ============================================\r\n\r\n    // Precio del boleto de loteria (en tokens ERC-20)\r\n    uint public precioBoleto = 5;\r\n    // Relacion: persona que compra los boletos -> el numero de los boletos\r\n    mapping(address => uint []) idPersona_boletos;\r\n    // Relacion: boleto -> ganador\r\n    mapping(uint => address) ADNBoleto;\r\n    // Numero aleatorio\r\n    uint randNonce = 0;\r\n    // Boletos de la loteria generadors\r\n    uint [] boletosComprados;\r\n\r\n    // Compra de boletos de loteria\r\n    function compraBoleto(uint _numBoletos) public {\r\n        // Precio total de los boletos a comprar\r\n        uint precioTotal = _numBoletos*precioBoleto;\r\n        // Verificacion de los tokens del usuario\r\n        require(precioTotal <= balanceTokens(msg.sender), \r\n                \"No tienes tokens suficientes\");\r\n        // Transferencia de tokens del usuario al Smart Contract\r\n        _transfer(msg.sender, address(this), precioTotal);\r\n        /* Recoge la marca de tiempo (block.timestamp), msg.sender y un Nonce\r\n        (un numero que solo se utiliza una vez, para que no ejecutemos dos veces la misma \r\n        funcion de hash con los mismos parametros de entrada) en incremento.\r\n        Se utiliza 'keccak256 'para convertir estas entradas a un hash aleatorio, \r\n        convertir ese hash a un uint y luego utilizamos % 10000 para tomar los ultimos 4 digitos,\r\n        dando un valor aleatorio entre 0 - 9999. */\r\n        for (uint i = 0; i < _numBoletos; i++){\r\n            uint random = uint(keccak256(abi.encodePacked(block.timestamp, msg.sender, randNonce))) % 10000;\r\n            randNonce++;\r\n            // Almacenamiento de los datos del boletos enlazados al usuario\r\n            idPersona_boletos[msg.sender].push(random);\r\n            // Almacenamiento de los datos de los boletos\r\n            boletosComprados.push(random);\r\n            // Asignacion del ADN del boleto para la generacion de un ganador\r\n            ADNBoleto[random] = msg.sender;\r\n            // Creacion de un nuevo NFT para el numero de boleto\r\n            boletosNFTs(usuario_contract[msg.sender]).mintBoleto(msg.sender, random);\r\n        }\r\n    }\r\n\r\n    // Visualizacion de los boletos del usuario\r\n    function tusBoletos(address _propietario) public view returns(uint [] memory){\r\n        return idPersona_boletos[_propietario];\r\n    }\r\n\r\n    // Generacion del ganador de la loteria\r\n    function generarGanador() public onlyOwner {\r\n        // Declaracion de la longitud del array\r\n        uint longitud = boletosComprados.length;\r\n        // Verificacion de la compra de al menos de 1 boleto\r\n        require(longitud > 0, \"No hay boletos comprados\");\r\n        // Eleccion aleatoria de un numero entre: [0-Longitud]\r\n        uint random = uint(uint(keccak256(abi.encodePacked(block.timestamp))) % longitud);\r\n        // Seleccion del numero aleatorio\r\n        uint eleccion = boletosComprados[random];\r\n        // Direccion del ganador de la loteria\r\n        ganador = ADNBoleto[eleccion];\r\n        // Envio del 95% del premio de loteria al ganador\r\n        payable(ganador).transfer(address(this).balance * 95 / 100);\r\n        // Envio del 5% del premio de loteria al owner\r\n        payable(owner()).transfer(address(this).balance * 5 / 100);\r\n    }\r\n\r\n}\r\n\r\n// Smart Contract de NFTs\r\ncontract mainERC721 is ERC721 {\r\n\r\n    address public direccionLoteria;\r\n    constructor() ERC721(\"Loteria\", \"STE\"){\r\n        direccionLoteria = msg.sender;\r\n    }\r\n\r\n    // Creacion de NFTs\r\n    function safeMint(address _propietario, uint256 _boleto) public {\r\n        require(msg.sender == loteria(direccionLoteria).usersInfo(_propietario),\r\n                \"No tienes permisos para ejecutar esta funcion\");\r\n        _safeMint(_propietario, _boleto);\r\n    }\r\n\r\n}\r\n\r\ncontract boletosNFTs {\r\n\r\n    // Datos relevantes del propietario \r\n    struct Owner {\r\n        address direccionPropietario;\r\n        address contratoPadre;\r\n        address contratoNFT;\r\n        address contratoUsuario;\r\n    }\r\n    // Estructura de datos de tipo Owner\r\n    Owner public propietario;\r\n\r\n    // Constructor del Smart Contract (hijo)\r\n    constructor(address _propietario, address _contratoPadre, address _contratoNFT){\r\n        propietario = Owner(_propietario, \r\n                            _contratoPadre,\r\n                            _contratoNFT, \r\n                            address(this));\r\n    }\r\n\r\n    // Conversion de los numeros de los boletos de loteria\r\n    function mintBoleto(address _propietario, uint _boleto) public {\r\n        require(msg.sender == propietario.contratoPadre, \r\n                \"No tienes permisos para ejecutar esta funcion\");\r\n        mainERC721(propietario.contratoNFT).safeMint(_propietario, _boleto);\r\n    }\r\n\r\n}",
  "sourcePath": "C:\\Users\\Remoto\\Documents\\Melvin\\Mis cosas\\Loteria\\src\\contracts\\loteria.sol",
  "compiler": {
    "name": "solc",
    "version": "0.8.4+commit.c7e474f2.Emscripten.clang"
  },
  "schemaVersion": "3.4.16",
  "updatedAt": "2024-11-18T09:53:48.191Z",
  "networkType": "ethereum",
  "devdoc": {
    "kind": "dev",
    "methods": {
      "allowance(address,address)": {
        "details": "See {IERC20-allowance}."
      },
      "approve(address,uint256)": {
        "details": "See {IERC20-approve}. NOTE: If `amount` is the maximum `uint256`, the allowance is not updated on `transferFrom`. This is semantically equivalent to an infinite approval. Requirements: - `spender` cannot be the zero address."
      },
      "balanceOf(address)": {
        "details": "See {IERC20-balanceOf}."
      },
      "decimals()": {
        "details": "Returns the number of decimals used to get its user representation. For example, if `decimals` equals `2`, a balance of `505` tokens should be displayed to a user as `5.05` (`505 / 10 ** 2`). Tokens usually opt for a value of 18, imitating the relationship between Ether and Wei. This is the default value returned by this function, unless it's overridden. NOTE: This information is only used for _display_ purposes: it in no way affects any of the arithmetic of the contract, including {IERC20-balanceOf} and {IERC20-transfer}."
      },
      "decreaseAllowance(address,uint256)": {
        "details": "Atomically decreases the allowance granted to `spender` by the caller. This is an alternative to {approve} that can be used as a mitigation for problems described in {IERC20-approve}. Emits an {Approval} event indicating the updated allowance. Requirements: - `spender` cannot be the zero address. - `spender` must have allowance for the caller of at least `subtractedValue`."
      },
      "increaseAllowance(address,uint256)": {
        "details": "Atomically increases the allowance granted to `spender` by the caller. This is an alternative to {approve} that can be used as a mitigation for problems described in {IERC20-approve}. Emits an {Approval} event indicating the updated allowance. Requirements: - `spender` cannot be the zero address."
      },
      "name()": {
        "details": "Returns the name of the token."
      },
      "owner()": {
        "details": "Returns the address of the current owner."
      },
      "renounceOwnership()": {
        "details": "Leaves the contract without owner. It will not be possible to call `onlyOwner` functions. Can only be called by the current owner. NOTE: Renouncing ownership will leave the contract without an owner, thereby disabling any functionality that is only available to the owner."
      },
      "symbol()": {
        "details": "Returns the symbol of the token, usually a shorter version of the name."
      },
      "totalSupply()": {
        "details": "See {IERC20-totalSupply}."
      },
      "transfer(address,uint256)": {
        "details": "See {IERC20-transfer}. Requirements: - `to` cannot be the zero address. - the caller must have a balance of at least `amount`."
      },
      "transferFrom(address,address,uint256)": {
        "details": "See {IERC20-transferFrom}. Emits an {Approval} event indicating the updated allowance. This is not required by the EIP. See the note at the beginning of {ERC20}. NOTE: Does not update the allowance if the current allowance is the maximum `uint256`. Requirements: - `from` and `to` cannot be the zero address. - `from` must have a balance of at least `amount`. - the caller must have allowance for ``from``'s tokens of at least `amount`."
      },
      "transferOwnership(address)": {
        "details": "Transfers ownership of the contract to a new account (`newOwner`). Can only be called by the current owner."
      }
    },
    "version": 1
  },
  "userdoc": {
    "kind": "user",
    "methods": {},
    "version": 1
  }
}